:020000040800F2
:10000000000002202D880008F981000809820008FC
:1000100019820008298200083982000800000000C7
:1000200000000000000000000000000049820008FD
:1000300059820008000000006982000879820008E7
:10004000998800089988000899880008998800080C
:100050009988000899880008810300089988000899
:10006000C107000899880008998800089988000845
:1000700099880008998800089988000899880008DC
:1000800099880008998800089988000899880008CC
:1000900099880008998800089988000899880008BC
:1000A00099880008998800089988000899880008AC
:1000B000998800089988000899880008998800089C
:1000C000998800089988000899880008998800088C
:1000D000998800089988000899880008998800087C
:1000E000998800089988000899880008998800086C
:1000F000998800089988000899880008998800085C
:1001000099880008911900089988000899880008C2
:10011000998800089988000899880008998800083B
:10012000998800089988000899880008951900089E
:10013000998800089988000899880008998800081B
:10014000998800089988000899880008998800080B
:1001500099880008998800089988000899880008FB
:1001600099880008998800089988000899880008EB
:1001700099880008998800089988000899880008DB
:08018000998800089988000825
:1001C00010B5054C237833B9044B13B10448AFF391
:1001D00000800123237010BD800400200000000077
:1001E000F48C000808B5034B1BB103490348AFF377
:1001F000008008BD0000000084040020F48C00088A
:10020000A3F5803A704700BF174B002B08BF134B74
:100210009D46FFF7F5FF00218B460F461348144A11
:10022000121A08F06FFB0E4B002B00D098470D4BB5
:10023000002B00D098470020002104000D000D483D
:10024000002802D00C4808F0DDFC08F037FB200045
:10025000290001F07DF808F021FB00BF0000080034
:1002600000000000000000000000000080040020EA
:10027000A82F0120058C0008118C0008C477010804
:10028000000000207C04002080040020A82F012012
:10029000002000EE100A012000EE900A022001EE7C
:1002A000100A40F60000C4F2020001EE900A042099
:1002B00002EE100A40F20000C4F2020002EE900AC0
:1002C00040F2A040C2F2000003EE100A43F60040E4
:1002D000C4F2010003EE900A40F22000C5F255502E
:1002E00004EE100A40F22000C0F2000004EE900A72
:1002F00040F20040C4F2020006EE100A402006EE72
:10030000900A5FF480700BEE100A40F20000C1F218
:10031000000007EE100A00200AEE900A704700BFA6
:10032000042007EE900A00200CEE100A0CEE900A52
:1003300000200DEE100A00200DEE900A00200EEEB7
:10034000100A00200EEE900A00200FEE900A0AEE2E
:10035000100A00200BEE900A0C2050F000400AEE2C
:10036000900A7047AFF30080AFF30080AFF30080D6
:1003700000200AEE900A7047AFF30080AFF30080D0
:100380000FEE10BA12EE90BA11EE902A13EE903AD8
:10039000C3ED050AD2F81008116911F0010F40F001
:1003A000098210F0FF0011F0080F18BF40F48070B0
:1003B000DFE810F00002000200020002000200026A
:1003C000000200020002000200020002000200021D
:1003D000000200020002000200020002000200020D
:1003E00000020002000200020002000200020002FD
:1003F00000020002000200020002000200020002ED
:1004000000020002000200020002000200020002DC
:10041000000200021A02560273029002E002000279
:1004200000020002000200020002000200020002BC
:1004300000020002000200020002000200020002AC
:10044000000200020002000200020002000200029C
:10045000000200020002000200020002000200028C
:10046000000200020002000200020002000200027C
:10047000000200020002000200020002000200026C
:10048000000200020002000200020002000200025C
:10049000000200020002000200020002000200024C
:1004A000000200020002000200020002000200023C
:1004B000000200020002000200020002000200022C
:1004C000000200020002000200020002000200021C
:1004D000000200020002000200020002000200020C
:1004E00000020002000200020002000200020002FC
:1004F00000020002000200020002000200020002EC
:1005000000020002000200020002000200020002DB
:1005100000020002000200020002000200020002CB
:1005200000020002000200020002000200020002BB
:1005300000020002000200020002000200020002AB
:10054000000200020002000200020002000200029B
:10055000000200020002000200020002000200028B
:10056000000200020002000200020002000200027B
:10057000000200020002000200020002000200026B
:10058000000200020002000200020002000200025B
:10059000000200020002000200020002000200024B
:1005A000000200020002000200020002000200023B
:1005B000000200020002000200020002000200022B
:1005C000000200020002000200020002000200021B
:1005D000000200020002000200020002000200020B
:1005E00000020002000200020002000200020002FB
:1005F00000020002000200020002000200020002EB
:1006000000020002000200020002000200020002DA
:10061000000200021C03B104E6041B05BC05000235
:10062000000200027C05000200020002000200023B
:1006300000020002000200020002000200020002AA
:10064000000200020002000200020002000200029A
:10065000000200020002000200020002000200028A
:10066000000200020002000200020002000200027A
:10067000000200020002000200020002000200026A
:10068000000200020002000200020002000200025A
:10069000000200020002000200020002000200024A
:1006A000000200020002000200020002000200023A
:1006B000000200020002000200020002000200022A
:1006C000000200020002000200020002000200021A
:1006D000000200020002000200020002000200020A
:1006E00000020002000200020002000200020002FA
:1006F00000020002000200020002000200020002EA
:1007000000020002000200020002000200020002D9
:1007100000020002000200020002000200020002C9
:1007200000020002000200020002000200020002B9
:1007300000020002000200020002000200020002A9
:100740000002000200020002000200020002000299
:100750000002000200020002000200020002000289
:100760000002000200020002000200020002000279
:100770000002000200020002000200020002000269
:100780000002000200020002000200020002000259
:100790000002000200020002000200020002000249
:1007A0000002000200020002000200020002000239
:1007B000000200021FEE10BA704700BFAFF30080C6
:1007C0000FEE10BA12EE90BA11EE902A13EE903A94
:1007D00083ED052A116911F0040FFFD11FEE10BA45
:1007E00070471FEE10BA704717EE901A8C465346AA
:1007F0001AEE900A31F080015B000BD31EEE103A26
:1008000053F040030EEE103A31F001013CF0010CC0
:1008100000208246090214EE100AC2F81414C2F82D
:1008200000041EEE900A10F0800F14BF0CF0C30CF1
:100830008CF0020C07EE90CA13EE903AC3ED020A58
:10084000C3ED010A14EE901ABFF34F8F40BF20BFD3
:1008500020BFC2F8001483ED020A1FEE10BA7047E1
:100860001CEE101A090214EE100AC2F81414C2F891
:10087000000413EE903AC3ED020AC3ED010A14EE30
:10088000901ABFF34F8F40BF20BF20BFC2F80014A3
:1008900083ED020A1FEE10BA70471DEE101A09020E
:1008A00014EE100AC2F81414C2F8000413EE903AC1
:1008B000C3ED020AC3ED010A14EE901ABFF34F8F85
:1008C00040BF20BF20BFC2F8001483ED020A1FEE14
:1008D00010BA70471FEE90CABCF1000F09D11DEE8F
:1008E000901A090214EE100AC2F81414C2F8000497
:1008F0002CE040F2A040C2F201001BEE903A002131
:10090000C15C0DEE901A090214EE100AC2F814141C
:10091000C2F800040133BCF1010C0BEE903A1DEE5D
:10092000103A0FEE90CA40F2FF101CEA000F0DEED5
:10093000103ABCF1000F09D117EE90CA3CF0030C3D
:1009400007EE90CA5FF0800C0EEE10CA13EE903ADC
:10095000C3ED020AC3ED010A14EE901ABFF34F8FE4
:1009600040BF20BF20BFC2F8001483ED020A1FEE73
:1009700010BA70471EEE101A090214EE100AC2F8DF
:100980001414C2F8000413EE903AC3ED020AC3ED4A
:10099000010A14EE901ABFF34F8F40BF20BF20BF53
:1009A000C2F8001483ED020A1FEE10BA7047FF214F
:1009B000090214EE100AC2F81414C2F8000413EE6F
:1009C000903AC3ED020AC3ED010A14EE901ABFF388
:1009D0004F8F40BF20BF20BFC2F8001483ED020A32
:1009E0001FEE10BA70471FEE10BA704700BF00BF6D
:1009F00000BF00BF00BF00BF00BF00BF00BF00BFFF
:100A000000BF00BF00BF00BF00BF00BF00BF00BFEE
:100A100000BF00BF00BF00BF00BF00BF00BF00BFDE
:100A200000BF00BF00BF00BF00BF00BF00BF00BFCE
:100A300000BF00BF00BF00BF00BF00BF00230EEE1D
:100A4000103AD2F81014090A084610F0F000D02825
:100A500024D15FF0000C0FEE90CA0EEE900A17EE54
:100A6000900A10F0010F04D030F0010007EE900A58
:100A700007E000201CEE901A002908BF042007EEB2
:100A8000900A13F0080F1CBF80200EEE100A1169A7
:100A900011F0010FFBD01FEE10BA704717EE90CA8D
:100AA0001CF0010F02D01FEE10BA70475FF0000C6F
:100AB00007EE90CA0EEE901A0009DFE810F013005E
:100AC0003600620062006200620062006200A700FD
:100AD000A700F100F10029011000100010001FEE26
:100AE00010BA70475FF0000C0CEE10CA0CEE90CA02
:100AF0005FF0000C5CF0060C11F0080F01D05CF008
:100B0000200C07EE90CA5FF0800C0EEE10CADFF8E2
:100B10008C34012158608A4617EE90CA5CF0010CB3
:100B200007EE90CA1FEE10BA7047F0EE40FA5FF081
:100B3000000C11F0080F01D05CF0200C5CF0020CEE
:100B40001DEE900A002801D15CF0040C07EE90CA5B
:100B50000CEE100A0CEE900A5FF0800C0EEE10CA3C
:100B6000DFF838349968814208D0012158608A46FC
:100B700017EE90CA5CF0010C07EE90CA1FEE10BA97
:100B8000704711F0400F09D131F020011AEE90CAE0
:100B90001CF0800F18BF41F020010AE01AEE90CA45
:100BA00013F0200F14BF4CF0800C2CF0800C0AEED8
:100BB00090CA1CEE900A11F0200F14BF01380130CA
:100BC00010F0004F18BF00200CEE900A11F0100F2B
:100BD00018BF0CEE100A0221002808BF41F00401E2
:100BE00007EE901A5FF0800C0EEE10CAEB4B99687E
:100BF000814208D0012158608A4617EE90CA5CF005
:100C0000010C07EE90CA1FEE10BA704700201CEED0
:100C1000103A11F0020F09D011F0080F06D0002B86
:100C20000CBF00F5106000F588500AE01AEE90CA7B
:100C30001CF0100F05D0002B0CBF00F5106000F564
:100C400088501DEE10CABCF1010C48BF4FF0000CDB
:100C5000002B0CBF4FEACC1C4FEA0C2C10EB0C0005
:100C60000BEE900A5FF48070002B08BF5FF08000ED
:100C700011F0100F05D011201DEE103AC01A0130EE
:100C800000020FEE900A17EE900A50F0030007EEF4
:100C9000900A5FF0400C0EEE10CA1FEE10BA7047BB
:100CA000002011F0020F05D011F0080F18BF00F559
:100CB000885006E01AEE90CA1CF0100F18BF00F51D
:100CC00088501DEE10CABCF1010C48BF4FF0000C5B
:100CD0005FEA0C2C10EB0C000BEE900A5FF48070B6
:100CE00011F0100F05D011201DEE103AC01A01307E
:100CF00000020AEE100A17EE900A50F0030007EE09
:100D0000900A5FF0400C0EEE10CA1FEE10BA70474A
:100D10001FEE10BA704700BF00BF00BF00BF00BF8A
:100D200000BF00BF00BF00BF00BF00BF00BF00BFCB
:100D300000BF00BF00BF00BF00BF00BF00BF00BFBB
:100D400000BF00BF00BF00BF00BF00BF00BF00BFAB
:100D500000BF00BF00BF00BF00BF00BF00BF00BF9B
:100D600000BF00BF00BFD2F81014090A17EE900AA6
:100D700010F0010F08BF0CEE101A1FEE10BA7047EA
:100D800000BF00BF00BF00BF00BF00BF00BF00BF6B
:100D900000BF00BF00BF00BF00BF00BF00BF00BF5B
:100DA00000BF00BF00BF00BF00BF00BF00BF00BF4B
:100DB00000BF00BF00BF00BF00BF00BF00BF00BF3B
:100DC00000BF00BF00BF00BF00BF00BF00BF00BF2B
:100DD000D2F81014090A17EE900A10F0010F08BF9C
:100DE0000DEE101A1FEE10BA704700BF00BF00BF13
:100DF00000BF00BF00BF00BF00BF00BF00BF00BFFB
:100E000000BF00BF00BF00BF00BF00BF00BF00BFEA
:100E100000BF00BF00BF00BF00BF00BF00BF00BFDA
:100E200000BF00BF00BF00BF00BF00BF00BF00BFCA
:100E300000BF00BF00BF00BF00BFD2F81014090AF6
:100E40000DEE901A1AEE10CABCF1000F02D11FEE7F
:100E500010BA704740F2A040C2F201001BEE903A77
:100E6000C1540133BCF1010C0BEE903A1DEE103A67
:100E70000AEE10CA4FF0FF001CEA000F0DEE103A08
:100E8000BCF1000F0FD117EE90CA3CF0030C07EE37
:100E900090CA5FF0800C0EEE10CA42F21070C0F2E1
:100EA00000003F4908601FEE10BA704700BF00BF46
:100EB00000BF00BF00BF00BF00BF00BF00BF00BF3A
:100EC00000BF00BF00BF00BF00BF00BF00BF00BF2A
:100ED00000BF00BF00BF00BF00BF00BF00BF00BF1A
:100EE00000BF00BF00BF00BF00BF00BF00BF00BF0A
:100EF00000BF00BF00BF00BF00BF00BFD2F810148A
:100F0000090A1AEE90CA11F0010F14BF4CF0200C20
:100F10002CF0200C11F0020F14BF4CF0100C2CF030
:100F2000100C0AEE90CA1FEE10BA704700BF00BF47
:100F300000BF00BF00BF00BF00BF00BF00BF00BFB9
:100F400000BF00BF00BF00BF00BF00BF00BF00BFA9
:100F500000BF00BF00BF00BF00BF00BF00BF00BF99
:100F600000BF00BF00BF00BF00BF00BF00BF00BF89
:100F700000BF00BF00BF00BF00BF00BFD2F8101409
:100F8000090A1AEE90CA2CF0030C01F003015CEA86
:100F9000010C0AEE90CA1FEE10BA70470400002040
:100FA00010000020844641EA000313F003036DD1D2
:100FB000403A41D351F8043B40F8043B51F8043B1C
:100FC00040F8043B51F8043B40F8043B51F8043B23
:100FD00040F8043B51F8043B40F8043B51F8043B13
:100FE00040F8043B51F8043B40F8043B51F8043B03
:100FF00040F8043B51F8043B40F8043B51F8043BF3
:1010000040F8043B51F8043B40F8043B51F8043BE2
:1010100040F8043B51F8043B40F8043B51F8043BD2
:1010200040F8043B51F8043B40F8043B51F8043BC2
:1010300040F8043B403ABDD2303211D351F8043B62
:1010400040F8043B51F8043B40F8043B51F8043BA2
:1010500040F8043B51F8043B40F8043B103AEDD211
:101060000C3205D351F8043B40F8043B043AF9D262
:10107000043208D0D2071CBF11F8013B00F8013B35
:1010800001D30B8803806046704700BF082A13D342
:101090008B078DD010F003038AD0C3F10403D21A5A
:1010A000DB071CBF11F8013B00F8013B80D331F88E
:1010B000023B20F8023B7BE7043AD9D3013A11F80E
:1010C000013B00F8013BF9D20B7803704B78437079
:1010D0008B788370604670470000000000000000BD
:1010E0000000000000000000000000000000000000
:1010F00000000000000000000000000000000000F0
:1011000090F800F06DE9024520F007016FF0000C47
:1011100010F0070491F820F040F049804FF00004EF
:101120006FF00700D1E9002391F840F000F10800CA
:1011300082FA4CF2A4FA8CF283FA4CF3A2FA8CF302
:101140004BBBD1E9022382FA4CF200F10800A4FA69
:101150008CF283FA4CF3A2FA8CF3E3B9D1E90423BD
:1011600082FA4CF200F10800A4FA8CF283FA4CF3F4
:10117000A2FA8CF37BB9D1E9062301F1200182FAAE
:101180004CF200F10800A4FA8CF283FA4CF3A2FAB4
:101190008CF3002BC6D0002A04BF04301A4612BAC2
:1011A000B2FA82F2FDE8024500EBD2007047D1E9C5
:1011B000002304F00305C4F100004FEAC50514F054
:1011C000040F91F840F00CFA05F562EA05021CBF25
:1011D00063EA050362464FF00004A9E780B582B0D8
:1011E00000AF31233B7103237B710023BB710123CB
:1011F000FB713B1D184602F081FA3B233B7104232F
:101200007B713B1D184602F079FA00BF0837BD46D6
:1012100080BD00BF80B588B000AFF860B9607A606B
:10122000FB70BB68002B0CD10023BB614FF4106333
:101230007B61FB78002B1ED07B6903F588537B61B3
:1012400019E0FB78002B0BD0BA6813461B0113443E
:101250005B02A3F50063BB614FF408537B610AE0B6
:10126000BA6813461B0113441B02A3F50063BB615C
:101270004FF488537B61B969F86804F067FA034654
:10128000FB77FB7F002B09D107F110037A6979689E
:10129000F86803F0FDFF0346FB7706E064230522B0
:1012A0004FF47A71012000F087FDFB7F184620374C
:1012B000BD4680BD80B588B000AFF860B9607A6087
:1012C000FB70BB68002B0CD10023BB614FF4106393
:1012D0007B61FB78002B1ED07B6903F588537B6113
:1012E00019E0FB78002B0BD0BA6813461B0113449E
:1012F0005B02A3F50063BB614FF408537B610AE016
:10130000BA6813461B0113441B02A3F50063BB61BB
:101310004FF488537B61B969F86804F017FA034603
:10132000FB77FB7F002B09D107F110037A697968FD
:10133000F86804F077F80346FB7703E040F6B8302E
:1013400000F020FDFB7F18462037BD4680BD00BF62
:10135000F0B5ADF5437D00AF00F084FAFEF798FFDD
:101360004FF0000A042000F097FA01214FF480109A
:1013700001F0DEF800F09AFB00F0AEFB00F076FB27
:1013800000F0C0FB00F0D8FB00F0EEFAC24B5B6C43
:10139000C14A43F480435364C04B1B6ABF4A43F0C5
:1013A0000103136200BFBD4B1B6A03F48073002B63
:1013B000F9D04FF4407002F097F9B94B00221A604F
:1013C000FFF70CFF4FF40D720021B64807F09AFAB0
:1013D0000022B549B34803F009FE03461A46B34B51
:1013E0001A70B24B1B78002B02D0FA2000F0CAFC16
:1013F00007F54273A3F5357CAD4B66460FCB07C6A8
:1014000033700CF10D0300221A8007F134023B1DEA
:101410001146184604F052FA03461A46A34B1A70B6
:10142000A24B1B78002B02D0642000F0ABFC00F034
:10143000B3FA00F0D7FA0123C7F8FC324FF00002EC
:101440004FF00003C7E9C0234FF0FF33C7F8F8326D
:1014500007F1C4034FF40A720021184607F052FA4C
:10146000944B1B69C7F8EC32D7F8EC3203F0040355
:10147000002B0AD0D7F8EC3203F00803002B04D07D
:10148000D7F8FC32002B00F0E6800023C7F8FC32CE
:10149000D7E9C023134340F0DE80D7F8EC3203F0E5
:1014A0000803002B3ED1D7F8F832002B30DD3B1D6E
:1014B000184604F041FA03461A467C4B1A7007F1AD
:1014C00034023B1D1146184604F0F8F903461A464B
:1014D000764B1A700023C7F8F0320DE03B1D7649B9
:1014E000184604F041FA03461A46704B1A70D7F8B2
:1014F000F0320133C7F8F032D7F8F832D7F8F022DB
:101500009A42EBD3D7F8F832013BC7F8F8323AE009
:101510003B1D6949184604F027FA03461A46634BF7
:101520001A7030E0D7F8F8320133C7F8F8323B1DB3
:101530006149184604F018FA03461A465B4B1A70C4
:101540005A4B1B78002B03D15B4B9B7D002B1AD190
:101550003B1D184604F0F0F907F134023B1D11461B
:10156000184604F0ABF903461A46504B1A703B1D5F
:101570005149184604F0F8F903461A464B4B1A70C5
:101580000023C7F8F83207F1340207F1440311468B
:10159000184607F029FA07F144031846FFF7B0FD93
:1015A00003461A4607F14403134444491A460B46BE
:1015B0001B88138007F144034149184607F0F4F9EA
:1015C00040493F4800F050FC0346002B3ED007F551
:1015D0004273A3F511739B88002B0CD007F1C40351
:1015E000184604F0A1F807F1C4034FF40A72002171
:1015F000184607F087F907F1440107F1C4030122F7
:10160000184603F01BFD03461A46284B1A70274B59
:101610001B78002B06D06423032240F2DC5101200A
:1016200000F0CAFB07F54273A3F51173DB68B3F54D
:10163000283F14BF01230023DBB287F8F732224B87
:1016400000221A604FF0010AFEF76AFE1F4A4FF0AF
:101650000003C7E9C023D7E9C023134305D0D7E966
:10166000C023541E43F1FF3503E04FF000044FF058
:101670000005C7E9C045534603F04043002B40F046
:1016800090805346DBB2002B00F08B805346012B39
:101690001ED0032B78D085E000380240003801408E
:1016A00010E000E0B8270120348D0008EC2901206B
:1016B000548D000800000240A0260120388D00084B
:1016C000B62601203C8D000808000020C0C62D0071
:1016D000534643F080439A465B4B1B68002B41D036
:1016E00007F54273A3F511739B88002B0CD007F10B
:1016F000C403184604F018F807F1C4034FF40A7243
:101700000021184607F0FEF807F1440107F1C40371
:101710000222184603F092FC03461A464B4B1A70FD
:101720004B4B196897F8F73207F1C400494AFFF7A5
:10173000C1FD07F1C403184603F0F6FF07F1C40327
:101740004FF40A720021184607F0DCF807F1440153
:1017500007F1C4030122184603F070FC03461A4641
:101760003A4B1A703C4B196897F8F73207F1C400EE
:10177000384AFFF74FFD384B1B68354A1360534614
:1017800043F000439A460DE0534643F080439A46A7
:101790003249334800F080FB534643F000439A46F9
:1017A00000E000BF284B1B68002B3FF459AE264BCE
:1017B0001B68013B244A1360234B1B68002B7FF4FA
:1017C0004FAE07F54273A3F511739B88002B0CD025
:1017D00007F1C403184603F0A7FF07F1C4034FF451
:1017E0000A720021184607F08DF807F1440107F14D
:1017F000C4030222184603F021FC03461A46134B89
:101800001A70134B196897F8F73207F1C400114AA0
:10181000FFF750FD07F1C403184603F085FF07F1F9
:10182000C4034FF40A720021184607F06BF807F161
:10183000440107F1C4030122184603F0FFFB0346ED
:101840001A46024B1A700BE610000020EC2901200A
:101850000C000020A004012008000020004000101F
:10186000448D0008DFF82800016841F47001016030
:10187000BFF34F8FBFF36F8FDFF8180001686FF36E
:101880009F710160BFF34F8FBFF36F8F70470000F0
:1018900088ED00E034EF00E070B5DFF8C8C0054621
:1018A000BCE80F008CB002AC0FC45CF8043B2360B2
:1018B000BCE80F000DF11C0EAEE80F000CAB03EB03
:1018C0008503DCF80020CEF8002053F8284C53F8AC
:1018D000146C00F0E5FC012000F0FCFC00F002FDBF
:1018E00008B90CB070BD6200022308214FF48000DB
:1018F000009600F039FD012000F048FD174A1368FA
:101900009B01FCD5022000F071FD002000F080FD5D
:10191000134B40F20562042D1A6009D8012D0CD931
:101920004FF4A05000F07EFD4FF4805000F084FD95
:101930000CB0BDE8704000F08DB93DB14FF480505F
:1019400000F070FD002000F077FDF1E7284600F080
:1019500069FD284600F070FDEAE700BF003802404C
:10196000003C0240648D000808B501214FF480203E
:1019700000F0DEFD01214FF0805000F0FDFD012060
:1019800000F0D6FEBDE80840012000F0EDBE00BF2B
:1019900006F0BCBB06F010BC10B5012184B04FF4BA
:1019A000804000F0F5FD0021022000F04FFF0124EF
:1019B00002A84FF44063ADF80C3002948DF80E404D
:1019C00000F0C8FA0622002301A88DF804208DF843
:1019D00005408DF806308DF8074001F08FFE04B009
:1019E00010BD00BF10B5012184B04FF4804000F05D
:1019F000CFFD0221084600F029FF012402A804229D
:101A00004FF440630292ADF80C308DF80E4000F0B8
:101A1000A1FA0023082201A88DF804208DF80530D2
:101A20008DF806308DF8074001F068FE04B010BD57
:101A300010B5012182B0022000F07AFD094C00218E
:101A40004FF4802000F0D4FD074B4FF47F426946ED
:101A50002046CDE9002300F07FFB4FF6FF73636162
:101A600002B010BD000402400103010030B50D4C6E
:101A700083B00121042000F05BFD0F22694620465F
:101A80004FF44073CDE9002300F066FB064B1025B0
:101A900069462046CDE9005300F05EFB656103B066
:101AA00030BD00BF000802400103000100B5012164
:101AB00083B0082000F03CFD4FF47F424FF44073A8
:101AC00004486946CDE9002300F046FB03B05DF809
:101AD00004FB00BF000C024000B5012183B01020C0
:101AE00000F026FD054B06484FF6FF726946CDE92A
:101AF000002300F031FB03B05DF804FB000300029B
:101B00000010024000B5012183B0084600F010FD2E
:101B100000214FF4002000F02FFD4FF4817240F2BD
:101B2000013304486946CDE9002300F015FB03B0FA
:101B30005DF804FB0000024000B5012183B00846B7
:101B400000F0F6FC054B06480C226946CDE900235F
:101B500000F002FB03B05DF804FB00BF00030001CE
:101B600000000240354A36481368002143F0010363
:101B700013609160136823F0847323F4803313603F
:101B80005060136882B023F480231360D160009109
:101B90000191136843F48033136003E0009BB3F5B5
:101BA000A06F09D0136803F400330193009B013345
:101BB0000093019B002BF1D0204B1B6813F40033E2
:101BC00018BF01230193019B012B05D01D4B4FF042
:101BD00000629A6002B07047184B1B491A6C1B4890
:101BE00042F080521A640A6842F480420A609A689D
:101BF0009A609A6842F400429A609A6842F4A0524D
:101C00009A6058601A6842F080721A601A689201ED
:101C1000FCD50F4A40F205711160996821F003016B
:101C20009960996841F00201A2F580629960936819
:101C300003F00C03082BFAD1C8E700BF00380240BC
:101C40001030002400ED00E0007000400854400710
:101C5000003C0240164A936803F00C03042B0CD09E
:101C6000082B0CD0134B124A134892681349C2F345
:101C70000312825CD3400B607047114BF3E753684B
:101C8000516813F4800F01F03F01536814BF0C4AF0
:101C9000084AB2FBF1F1064A5268C2F30142C3F3AB
:101CA0008813013201FB03F35200B3FBF2F3DAE7CE
:101CB000003802400024F40014000020240000201A
:101CC00000127A00C0EB0010800002D000BF013883
:101CD000FCD170474EF6602303FB00F010B100BF4B
:101CE0000138FCD1704700BF80B24EF660220A492D
:101CF00000FB02F28024402048615AB1134600BF25
:101D0000013BFCD14C61134600BF013BFCD1486153
:101D1000002AF3D14C61EFE70000024080B24EF69A
:101D200060220A4900FB02F2402048615AB1134682
:101D300000BF013BFCD14B61134600BF013BFCD10E
:101D40004861002AF3D14A61EFE700BF000002407A
:101D500080B24EF660220A4900FB02F28020486100
:101D60005AB1134600BF013BFCD14B61134600BF83
:101D7000013BFCD14861002AF3D14A61EFE700BF83
:101D80000000024080B24EF660220A4900FB02F2D7
:101D9000022048615AB1134600BF013BFCD14B61A0
:101DA000134600BF013BFCD14861002AF3D14A61D0
:101DB000EFE700BF000002402DE9F04189B24EF686
:101DC00060289BB208FB01F4DFF888C008FB03F829
:101DD000164608F1FF3704F1FF3E022200250028D5
:101DE000C8BF00210FDDCCF8142064B3734600BFD8
:101DF000013BFCD2CCF81450734600BF013BFCD22F
:101E000001318842EFD1002EE9DD0021CCF8142009
:101E1000B8F1000F11D03B4600BF013BFCD2CCF81B
:101E200014503B4600BF013BFCD201318E42D6D05C
:101E3000CCF81420B8F1000FEDD101318E42CCF86E
:101E40001480F5D1CBE701318842CCF81440CAD1D7
:101E5000D9E700BF00000240024A536983F0020341
:101E6000536170470000024070B50D460646FFF70B
:101E700047F904462846FFF743F9844209D9241A52
:101E800002462946301906F00DFEB0FA80F04009EE
:101E900070BD002070BD00BF2DE9F0418CB004463C
:101EA0000D4630220021684606F02CFD214668468A
:101EB00003F004FDC0BBDFF87C8005F27F1401272E
:101EC0006FF4BF764146684603F04EFD7B1E08BBAB
:101ED00098F81600F0B12346154A03F87F0D04E088
:101EE000107803F8010FA3420AD012F8010B002862
:101EF000F6D101377F2F04F18004E3D17E230AE07D
:101F0000731B013700227F2F03F8142004F1800493
:101F1000D8D1F3E7DBB20022AB70EA70684603F079
:101F20000BFD0CB0BDE8F0814FF4FA60FFF7DCFE6A
:101F30005E2B0120482B0120044B054900221A602A
:101F40005A609A60DA605961704700BF003C0140F6
:101F5000FFFF7F00837943B31E4B01681A6822EAB2
:101F6000010210B41A605A6822EA01025A6002792A
:101F700002F1804202F59E32146821431160996893
:101F8000026821EA02019960D96821EA0201D96058
:101F90004179102914D001F1804303F59E335DF897
:101FA000044B19680A431A6070470379016803F10A
:101FB000804303F59E331A6822EA01021A607047D3
:101FC00099685DF8044B11439960D9680A43DA6057
:101FD000704700BF003C014000234FF440620360A3
:101FE00082808371704700BF024A136918431061F1
:101FF000704700BF003C0140034B5B69034214BFC4
:1020000001200020704700BF003C0140014B586197
:10201000704700BF003C0140054B1A685B690340F4
:1020200004D0024214BF01200020704718467047B8
:10203000003C0140014B5861704700BF003C01402B
:1020400008B53C4B984222D03B4B984229D03B4BA1
:10205000984230D03A4B98420FD03A4B984234D005
:10206000394B98423BD0394B984242D0384B98423A
:1020700055D0384B984246D008BD0121082000F0C9
:1020800093FABDE808400021082000F08DBA012134
:10209000084600F089FABDE808400021012000F060
:1020A00083BA0121022000F07FFABDE80840002138
:1020B000022000F079BA0121042000F075FABDE891
:1020C00008400021042000F06FBA0121102000F028
:1020D0006BFABDE808400021102000F065BA01212C
:1020E000202000F061FABDE808400021202000F027
:1020F0005BBA0121402000F057FABDE808400021FA
:10210000402000F051BA01214FF4807000F04CFAE9
:10211000BDE8084000214FF4807000F045BA01216D
:10212000802000F041FABDE808400021802000F046
:102130003BBA00BF00000240000402400008024019
:10214000000C02400010024000140240001802403F
:10215000001C02400020024000222DE9F04B1346F3
:102160000E680125032704E00133102B02F102025F
:1021700044D005FA03FC3CEA0604F5D1046807FAEA
:1021800002F924EA0904046091F804E0D0F800B0F0
:10219000C8466FEA09040EFA02F90EF1FF3E49EA59
:1021A0000B09BEF1010FC0F8009017D8D0F808E075
:1021B00004EA0E0484604C79D0F808E0944044EAC4
:1021C0000E048460446824EA0C0444608C79D0F8DE
:1021D00004C09C40A4B244EA0C044460C46824EAED
:1021E0000804C460CC79D0F80CC09440013344EAB0
:1021F0000C04102BC46002F10202BAD1BDE8F08BCE
:102200004FF6FF720023C0E90023704782B04FF4FD
:1022100080330193019B0B430193019BC361C16117
:10222000019BC361C3690193C369019302B0704705
:102230000369194214BF012000207047006980B271
:10224000704700BF4369194214BF01200020704746
:10225000406980B2704700BF018370474183704777
:102260000AB1018370474183704700BF41617047E5
:102270004369594041617047CB0800EB830001F08E
:102280000701036A89004FF00F0C0CFA01FC23EAE6
:102290000C030362036A8A401A430262704700BF5C
:1022A0000A4B0B481A68002142F001021A6099603B
:1022B0001A6822F0847222F480321A6058601A6818
:1022C00022F480221A60D960704700BF00380240B3
:1022D00010300024024B00229A709870704700BFA3
:1022E0000038024082B000230949019300E04AB956
:1022F0000A68019B01330193019BB3F5A06F02F4BF
:102300000032F4D1024B1868C0F3404002B070476D
:1023100000380240034A136823F0F80343EAC00080
:102320001060704700380240014B1860704700BFD2
:1023300000004742084B0022012883F8702083F8F0
:10234000702006D0042803D1052283F8702070473E
:10235000704783F87000704700380240014BC3F8A3
:10236000800E70470000474210B4019C40EA0460B0
:1023700008435B08044C40EA8210013B40EA0340FA
:1023800060605DF8044B704700380240014B1866EE
:10239000704700BF00004742034B090741EA801124
:1023A000C3F88410704700BF00380240014B9866A4
:1023B000704700BF00004742014BD864704700BF20
:1023C00000004742034A936823F0EC630B43034346
:1023D0009360704700380240034A936823F07843C3
:1023E0000B4303439360704700380240034A9368ED
:1023F00023F0030318439060704700BF0038024089
:10240000024B986800F00C00704700BF0038024093
:10241000034A936823F0F00318439060704700BFAD
:1024200000380240034A936823F4E0531843906055
:10243000704700BF00380240034A936823F46043AA
:1024400043EAC00090607047003802401F4A93681A
:1024500003F00C03042B10B41BD0082B1CD01C4B16
:1024600003601A4A1B499468C4F303140C5DE340EB
:1024700043609468C4F382240C5D23FA04F48460FE
:1024800092685DF8044BC2F342328A5CD340C36069
:102490007047114B0360E4E75368516813F4800FF1
:1024A00001F03F01536814BF0B4A094AB2FBF1F136
:1024B000064A5268C2F30142C3F38813013201FB9A
:1024C00003F35200B3FBF2F30360CAE700380240A3
:1024D0000024F4002800002000127A0000F4407369
:1024E000B3F5407F09D108498A6820F0704323F48E
:1024F000407322F4F81213438B60034B1A6FC0F33E
:102500000B0010431867704700380240014BC3F8B6
:102510003C0E704700004742014BC3F8400E704725
:1025200000004742014BC3F85C017047000047427E
:10253000044A136B11B118431063704723EA00007B
:102540001063704700380240044A536B11B11843BE
:102550005063704723EA0000506370470038024020
:10256000044A936B11B118439063704723EA00004B
:102570009063704700380240044A136C11B118434D
:102580001064704723EA000010647047003802406E
:10259000044A536C11B118435064704723EA000099
:1025A0005064704700380240044A136911B118435F
:1025B0001061704723EA0000106170470038024044
:1025C000044A536911B118435061704723EA00006F
:1025D0005061704700380240044A936911B11843B2
:1025E0009061704723EA0000906170470038024014
:1025F000044A136A11B118431062704723EA0000BD
:102600001062704700380240044A536A11B11843FF
:102610005062704723EA0000506270470038024061
:10262000044A136D11B118431065704723EA000086
:102630001065704700380240044A536D11B11843C9
:102640005065704723EA000050657047003802402B
:10265000044A936D11B118439065704723EA000056
:102660009065704700380240044A136E11B1184358
:102670001066704723EA0000106670470038024079
:10268000044A536E11B118435066704723EA0000A4
:102690005066704700380240044A537B11B118431A
:1026A0005073704723EA00005073704700380240AF
:1026B0004309012B0BD0022B094B0CBF1B6F5B6F27
:1026C00000F01F0023FA00F000F001007047044BF7
:1026D0001B6800F01F0023FA00F000F001007047B3
:1026E00000380240024A536F43F0807353677047CB
:1026F00000380240034BDB68184214BF0120002061
:10270000704700BF00380240014B9873704700BF0C
:102710000038024008B501214FF08050FFF768FFF4
:10272000BDE8084000214FF08050FFF761BF00BFB7
:10273000014B1862704700BF00000E42034A136845
:1027400023F0E00318431060704700BF00700040A2
:10275000014B1861704700BF00000E42014BC3F8E7
:10276000A000704700000E42014BC3F8A400704760
:1027700000000E42054A136818B923F48043136021
:10278000704743F480431360704700BF00700040FF
:10279000014B5862704700BF00000E4210B40C4C51
:1027A0000C4A236823F003031843206013690129AE
:1027B00043F00403136108D020BF064A5DF8044BC0
:1027C000136923F004031361704730BFF5E700BFBE
:1027D0000070004000ED00E0074B08491A6842F025
:1027E00004021A601A6842F002021A600B6943F090
:1027F00004030B6130BF70470070004000ED00E043
:10280000034B5B68034214BF01200020704700BFE8
:1028100000700040024A136843EA8000106070476D
:102820000070004008B501214FF48040FFF7ECFE36
:10283000BDE8084000214FF48040FFF7E5BE00BF2F
:10284000014B1860704700BF0038014001F0FC03E5
:1028500003F1804303F59C3301F003019A6889007A
:102860004FF00F0C0CFA01FC22EA0C029A609A68F5
:10287000884002439A607047014BC3F8DC00704700
:1028800000002742014BC3F80004704700002742B4
:10289000024B186AC0F30020704700BF00380140A7
:1028A00008B5604B984233D0B0F1804F3AD05E4BC0
:1028B000984241D05D4B984220D05D4B984245D024
:1028C0005C4B98424CD05C4B984253D05B4B984247
:1028D00066D05B4B984257D05A4B98426AD05A4BBD
:1028E000984273D0594B98427CD0594B984200F093
:1028F0008380584B984200F0898008BD0121042054
:10290000FFF776FEBDE8084000210420FFF770BE07
:1029100001210846FFF778FEBDE8084000210120AC
:10292000FFF772BE01210846FFF762FEBDE80840CE
:1029300000210120FFF75CBE01210220FFF758FEB5
:10294000BDE8084000210220FFF752BE0121082007
:10295000FFF74EFEBDE8084000210820FFF748BE03
:1029600001211020FFF744FEBDE80840002110209F
:10297000FFF73EBE01212020FFF73AFEBDE80840E8
:1029800000212020FFF734BE01214FF48030FFF7F3
:102990003BFEBDE8084000214FF48030FFF734BE15
:1029A00001210220FFF730FEBDE80840002102208F
:1029B000FFF72ABE01214FF40030FFF725FEBDE8E6
:1029C000084000214FF40030FFF71EBE01214FF4F4
:1029D0008020FFF719FEBDE8084000214FF4802059
:1029E000FFF712BE01214020FFF702FEBDE80840BC
:1029F00000214020FFF7FCBD01218020FFF7F8FDFA
:102A0000BDE8084000218020FFF7F2BD01214FF40E
:102A10008070FFF7EDFDBDE8084000214FF48070A5
:102A2000FFF7E6BD00000140000400400008004040
:102A3000000C004000100040001400400004014061
:102A4000004001400044014000480140001800409F
:102A5000001C004000200040234A038890429BB2A3
:102A600012D002F5806290420ED0B0F1804F0BD0B0
:102A7000A2F58032904207D002F58062904203D0E6
:102A800002F58062904203D14A8823F07003134319
:102A9000164A90421BD002F58062904217D0B1F8DE
:102AA00008C023F440739BB243EA0C0302F56C4266
:102AB00010B490424C6803800B88C46203850ED129
:102AC0008B7A038601235DF8044B83827047038071
:102AD0000B884A68C2620385012383827047044BD6
:102AE0009842EDD0EEE700BF00000140001000402A
:102AF0000004014000234FF0FF32C0E9003203819F
:102B00008372704701858282704700BF038823F07B
:102B100070031B041B0C194301807047416270470E
:102B2000C1627047406A7047008D80B2704700BF35
:102B3000038821B19BB243F002030380704723F066
:102B400002031B041B0C0380704700BF038821B1E4
:102B50009BB243F004030380704723F004031B047B
:102B60001B0C0380704700BF038821B19BB243F068
:102B700080030380704723F080031B041B0C038039
:102B8000704700BF038823F008031B041B0C03805D
:102B900003889BB219430180704700BF038823F468
:102BA00040731B041B0C038003889BB219430180F4
:102BB000704700BF038821B19BB243F0010303803B
:102BC000704723F001031B041B0C0380704700BFF8
:102BD000038C23F001031B041B0C0384038CB0F84B
:102BE00004C0028B10B54C88B1F80CE022F07302DF
:102BF0004EEA040E12040C8823F00203120C1B048C
:102C00002243144C1B0C43EA0E03A0421FFA8CFC17
:102C10009BB20AD004F58064A04206D08968A0F86F
:102C200004C002834163038410BDCC89B1F810E075
:102C300023F0080323434C8A2CF4407C4EEA040E14
:102C40008C8823F004034CEA0E0C1FFA8CFC2343FF
:102C5000E4E700BF00000140038CB1F80CC023F092
:102C600010031B041B0C0384038C10B523F02003FA
:102C7000B0F804E04C88028B1B044CEA040C22F4EC
:102C8000E6421B0C43EA0C131204B1F800C0120C0C
:102C900042EA0C221FFA82FC134A90421FFA8EFE6F
:102CA0009BB20BD002F58062904207D08A68A0F8F0
:102CB00004E0A0F818C08263038410BDCA894C8A5E
:102CC00023F0800343EA02120B8A2EF4406E234362
:102CD0004EEA830E8C884FF6BF73134043EA041309
:102CE0001FFA8EFE9BB2E1E700000140038CB1F8B1
:102CF0000CC023F480731B041B0C0384038C10B5DD
:102D000023F40073B0F804E04C88828B1B044CEA77
:102D1000040C22F073021B0C43EA0C231204B1F8DA
:102D200000C0120C42EA0C0C134A90421FFA8EFEAD
:102D30009BB20BD002F58062904207D08A68A0F85F
:102D400004E0A0F81CC0C263038410BDCA894C8A89
:102D500023F4006343EA02220B8A2EF4405E2343ED
:102D60004EEA031E8C884FF6FF33134043EA0423D8
:102D70001FFA8EFE9BB2E1E700000140038C23F4B2
:102D800080531B041B0C0384028CB0F804C0838B9B
:102D900010B54C88B1F80CE023F4E6434EEA040E7B
:102DA0001B040C8822F400521B0C43EA0423120477
:102DB0000E4C120C42EA0E32A0421FFA8CFC92B268
:102DC0009BB20AD004F58064A04206D08968A0F8BE
:102DD00004C083830164028410BD0C8A2CF4804CEF
:102DE0004CEA841C1FFA8CFCF0E700BF0000014095
:102DF0000023C0E90233036083800361704700BF92
:102E0000038C4FF0010C0CFA01FC9BB210B423EAC6
:102E10000C0321F0080400F1180C03849CB1043960
:102E2000C1F34E0148F6FF7051F80C305DF8044BC9
:102E3000034041F80C30120251F80C3092B21A43A0
:102E400041F80C20704749084FF68F7051F80C304C
:102E50005DF8044B034041F80C3051F80C301A4334
:102E600041F80C20704700BF416370478163704791
:102E7000C163704701647047038B23F070031B0428
:102E80001B0C194301837047038B23F4E0431B049D
:102E90001B0C43EA012189B201837047838B23F025
:102EA00070031B041B0C194381837047838B23F42D
:102EB000E0431B041B0C43EA012189B28183704764
:102EC000038B23F008031B041B0C19430183704779
:102ED000038B23F400631B041B0C43EA012189B21A
:102EE00001837047838B23F008031B041B0C1943D9
:102EF00081837047838B23F400631B041B0C43EA1C
:102F0000012189B281837047038B23F004031B04E2
:102F10001B0C194301837047038B23F480631B044C
:102F20001B0C43EA012189B201837047838B23F094
:102F300004031B041B0C194381837047838B23F408
:102F400080631B041B0C43EA012189B28183704713
:102F5000038B23F080031B041B0C19430183704770
:102F6000038BC3F30E0343EA012189B20183704747
:102F7000838B23F080031B041B0C19438183704750
:102F8000838BC3F30E0343EA012189B28183704727
:102F9000038C23F002031B041B0C194301847047AC
:102FA000038C23F008031B041B0C19430184704796
:102FB000038C23F020031B041B0C43EA011189B28C
:102FC00001847047038C23F080031B041B0C43EA2D
:102FD000011189B201847047038C23F400731B0430
:102FE0001B0C43EA012189B201847047038C23F44E
:102FF00000631B041B0C43EA012189B20184704762
:10300000038C23F400531B041B0C43EA013189B2E7
:1030100001847047038C4FF0010C9BB20CFA01FC49
:1030200023EA0C030384038C8A401A4392B202847D
:10303000704700BF038C4FF0040C9BB20CFA01FCEC
:1030400023EA0C030384038C8A401A4392B202845D
:10305000704700BF0B8830B543BB028CB1F802C08B
:103060008B88B1F808E0C98822F001021204120C22
:103070000284028B92B222F0F302134343EA0E134E
:10308000028C9BB2038393B223F00A034CEA03033E
:1030900043F001030384038B23F00C031B041B0C7C
:1030A0000383038B9BB21943018330BD042B34D0BF
:1030B000082B63D0B0F820C00A89B1F804E04C882E
:1030C000C9882CF4805C4FEA0C4C4FEA1C4CA0F8E9
:1030D00020C01203B0F81CC042EA0E2E028C45F646
:1030E000FF73134040F6FF4243EA043302EA0C0246
:1030F0009BB242EA0E0243F4805392B2828303846D
:10310000828B22F440621204120C8283838B9BB266
:1031100043EA01239BB2838330BDB0F820C04D88C1
:103120008A88B1F808E0C9882CF0100C4FEA0C4CE2
:103130004FEA1C4CA0F820C0048B038C12029BB2F7
:1031400042EA0E3E23F0A00340F6FF4243EA051395
:1031500022409BB242EA0E0243F0100392B2028375
:103160000384028B22F440621204120C0283038B4C
:103170009BB243EA01239BB2038330BDB0F820C069
:10318000B1F802E08A880C89C9882CF4807C4FEA67
:103190000C4C4FEA1C4CA0F820C0838B9BB223F050
:1031A000F3031A43038C9BB223F4206343EA0E23F8
:1031B00042EA04129BB243F4807392B28283038486
:1031C000838B23F00C031B041B0C8383838B9BB228
:1031D0001943818330BD00BF002301220380438057
:1031E0008280C3800381704770B54E888B880A88BF
:1031F000002E0CBF4FF0020C4FF0000C012B0CBF47
:103200004FF0020E4FF0010E002A4AD1028C0C89B9
:10321000C98822F001021204120C0284028B92B2BD
:1032200022F0F3021A43038C9BB223F00A0342EA12
:103230000412334392B243F0010302830384038BED
:1032400023F00C031B041B0C0383038B9BB20B4367
:103250000383038C23F010031B041B0C0384028BD9
:10326000038C9BB223F0A00343EA0C1C40F6FF43FF
:10327000134043EA0434A4B24CF0100C44EA0E2E7E
:10328000A0F818E0A0F820C0038B23F440631B04CF
:103290001B0C0383038B9BB243EA012189B2018398
:1032A00070BD1A02038C0C89C98823F010031B041B
:1032B0001B0C0384058B038C9BB223F0A00343EA11
:1032C000061340F6FF4642EA043235409BB22A43D9
:1032D00043F0100392B202830384038B23F4406310
:1032E0001B041B0C0383038B9BB243EA01239BB299
:1032F0000383038C23F001031B041B0C0384038B47
:103300009BB223F0F30343EA0414038C9BB223F033
:103310000A034CEA030CA4B24EEA04044CF0010C7C
:103320000483A0F820C0038B23F00C031B041B0CA8
:103330000383038B9BB21943018370BD406B7047BD
:10334000806B7047C06B7047006C7047038B23F035
:103350000C031B041B0C0383038B9BB219430183D7
:10336000704700BF028B22F440621204120C0283E9
:10337000038B9BB243EA012189B20183704700BFEE
:10338000838B23F00C031B041B0C8383838B9BB266
:1033900019438183704700BF828B22F4406212047C
:1033A000120C8283838B9BB243EA012189B2818311
:1033B000704700BFB1F802C00B888A8843EA0C034B
:1033C000B1F806C013430A8943EA0C03B1F80AC0F6
:1033D00013438A8943EA0C0313439BB2A0F8443099
:1033E000704700BF0023038043808380C380038134
:1033F00043818381704700BFB0F8443039B16FEA30
:1034000043436FEA53439BB2A0F844307047C3F381
:103410000E03A0F844307047838821B19BB243F07B
:1034200004038380704723F004031B041B0C838078
:10343000704700BF838821B19BB243F001038380B2
:10344000704723F001031B041B0C8380704700BFEF
:1034500083899BB212B119438181704723EA01012C
:103460008181704781827047038A194214BF01200D
:1034700000207047C94389B201827047038A82895C
:1034800011EA030092B203D00A4214BF01200020C7
:10349000704700BFC94389B2018270470A43A0F850
:1034A0004820704783899BB212B1194381817047CC
:1034B00023EA010181817047838821B19BB243F0E7
:1034C00008038380704723F008031B041B0C8380D0
:1034D000704700BF038923F007031B041B0C038103
:1034E000704700BF038923F070031B041B0C1943B2
:1034F000018103899BB243F007030381704700BF3A
:10350000602900B5B0F820C02BD02CF0010C4FEA98
:103510000C4C4FEA1C4CA0F820C0B0F818C01FFAA1
:103520008CFC2CF0F30C4CEA03139BB2B0F820C0D7
:1035300043F0010303831FFA8CF323F00A031A43B9
:1035400042F001020284038923F070031B041B0C68
:103550001943018103899BB243F0070303815DF89E
:1035600004FB2CF0100C4FEA0C4C4FEA1C4CA0F85A
:1035700020C0B0F818E0B0F820C01FFA8CFC2CF086
:10358000A00C4CEA021240F6FF4C0CEA0E0C4CEA7E
:10359000033392B29BB242F0100243F48073038370
:1035A0000284D0E7B0F808C042EA032319435FFA67
:1035B0008CFC4CEA010C1FFA8CFCA0F808C00389B3
:1035C00023F077031B041B0C43F077030381704740
:1035D000B0F808C042EA032319435FFA8CFC4CEAB6
:1035E000010C1FFA8CFCA0F808C003899BB243F4BD
:1035F00080430381704700BF038923F070031B04DD
:103600001B0C194301817047838823F070031B044E
:103610001B0C838083889BB219438180704700BF55
:10362000038923F007031B041B0C038103899BB24E
:1036300019430181704700BF038923F080031B04F5
:103640001B0C038103899BB219430181704700BFA2
:10365000B0F808C011435FFA8CFC41EA03234CEA3E
:10366000030C1FFA8CFCA0F808C0704700B5B0F836
:1036700008E0B0F818C02EF0070E4FEA0E4E4FEAE1
:103680001E4E4EEA0101B0F820E001812CF4407199
:1036900021F003012EF0220C09044FEA0C4C42EAFF
:1036A0000313090C4FEA1C4C4CEA030C41F48071E3
:1036B00041F001011FFA8CFC0183A0F820C05DF8E5
:1036C00004FB00BF838821B19BB243F08003838059
:1036D000704723F080031B041B0C8380704700BFDE
:1036E000A0F85010704700BF034B40F0BF6040F49B
:1036F0000030D860704700BF00ED00E0C37823B30E
:10370000184B90F801C0D96882780078C943C1F39A
:103710000221C1F10403DBB20CFA03FC0F230B41BD
:103720005FFA8CFC1049134043EA0C031B0101EBC8
:10373000000CDBB242098CF8003300F01F000123BB
:1037400003FA00F041F822007047037806485A094E
:10375000012103F01F03203201FA03F340F8223065
:10376000704700BF00ED00E000E100E021F06041A3
:10377000024B21F07F0108439860704700ED00E0A4
:1037800021B1054B1A69104318617047024A136949
:1037900023EA00001061704700ED00E04FF0E022E6
:1037A000042813690CBF43F0040323F004031361DE
:1037B000704700BF10B5044603F030FE2043C0B28E
:1037C000003818BF012010BD08B503F0D1FA012858
:1037D00014BF0220002008BD2DE9F041ADF5007DA9
:1037E00080460D4616461F4603F0C2FA012837D11F
:1037F000AB071AD09FB105EB472732466946012334
:103800004046FFF7E9FF4FF4007204466946284638
:103810000136154424B9FDF7C5FBBD42EDD10024A6
:1038200020460DF5007DBDE8F08104463B464FF48F
:1038300000723146284603F045FF0028F0D103F01E
:10384000B5FF054604F052FB0128FBD00228E7D063
:103850002C1E18BF012420460DF5007DBDE8F08127
:10386000032420460DF5007DBDE8F0812DE9F041EF
:10387000ADF5007D80460D4616461F4603F078FAEA
:10388000012838D1AB071BD0A7B105EB4727294644
:103890004FF400726846FDF785FB32460123694606
:1038A0004046FFF7E3FF05F500750136044610B901
:1038B000BD42ECD1002420460DF5007DBDE8F0812D
:1038C00004463B464FF400723146284604F0FCF8AB
:1038D0000028F0D104F092F9054604F007FB012816
:1038E000FBD00228E7D02C1E18BF012420460DF57E
:1038F000007DBDE8F081032420460DF5007DBDE884
:10390000F08100BF0020704700207047016861B15E
:103910000A4601E03A2B05D012F8013B1F2BF9D8DB
:10392000002070478B1C9A4202D04FF0FF30704746
:103930000B78302BF9D102600020704738B50D4666
:1039400040B1036804462BB11A781AB18088DA882E
:10395000904203D0092000232B6038BD5878FFF730
:1039600033FF10F00100F5D12368F5E72DE9F843A6
:10397000002407688C758369002B5BD0C36A013310
:1039800006460D4658D0FA681088B8B14FF00208C4
:10399000A1462CB900F520539BB2B3F5006F5FD35D
:1039A0004FF4697140EA044002F02EFDFF28C9F18E
:1039B000FF0343D9012B55D8002304B100232B4426
:1039C00000229A75A97DF76900247A1E07F10A0C76
:1039D0004FF02E0E04E0281901344372944513D0A1
:1039E000104612F8013F202BA0F107009EB2F5D03F
:1039F000052E08BFE523B842EDD10B2CEBD82819D2
:103A0000013480F809E0E6E72B1900225A7249B91F
:103A10008CBB3F23AB750124291900238B753B7B9D
:103A200003B96B72FB7A2B72FB692B60FB8AEB800C
:103A30003B8BAB80BDE8F8832146C4E7C8B1002BBF
:103A4000BBD005EB090398750123FA68994400245B
:103A500032F8080008F1020800289AD14B46ACE77A
:103A60000446F5E705EB0902030A9375D0750223B6
:103A7000EBE70346A1E76B7A0C46002BCCD005F1AF
:103A80000902A3F14101192908D8082C387B8CBF01
:103A90001021082108421CBF2033DBB2537312F8F7
:103AA000013F0134002BECD1B6E700BF70B500F147
:103AB0003406026B0446012340783146FFF7D6FEF8
:103AC00060B9216B636AE269E070CB1A93420546E4
:103AD00002D2A378022B04D0284670BD01252846C7
:103AE00070BD0A44607831460123FFF7BFFEF3E75B
:103AF000F8B5C37805460E463BBBAB69B11E023B29
:103B0000994228D26B89EE6A01FB036605F13407FE
:103B10002E634FF400720021384604F0F3FE6889EA
:103B2000044670B1002403E068890134A04208D93A
:103B30006878321901233946FFF798FE0028F3D040
:103B40006889201A18BF0120F8BDFFF7AFFF0028D1
:103B5000D3D00120F8BD0026D8E700BFF8B5C37860
:103B600004465BB92378032B0FD0002260781146FE
:103B7000FFF7C8FE003818BF0120F8BDFFF796FF19
:103B80000028FAD12378032BEFD12679012EECD12E
:103B900004F134074FF400720021384604F0B2FEFD
:103BA0005223656984F8343084F83530412384F831
:103BB000373084F81A3233467226206984F8186246
:103BC00084F819622E0A612284F81C5284F81D625E
:103BD0002E0C2D0E84F8362084F81B2284F81F52F8
:103BE000226A84F82002050A84F82152050C000E8E
:103BF0005521013284F82302AA2084F8321284F875
:103C0000330239466078226384F81E6284F82252B7
:103C1000FFF72CFE00232371A7E700BF38B5C37858
:103C200004460D466BB92A466078012304F134013D
:103C3000FFF7D2FD00281CBF4FF0FF3501202563A0
:103C400038BDFFF733FF0028EDD038BD70B54FF019
:103C5000FF360023B1420446C37006630CD00D4604
:103C60000A464078012304F13401FFF7B5FD10B195
:103C70002663042070BD2563B4F832224AF655232A
:103C80009A422BD194F83430EB2B05D01833DBB2A9
:103C9000012B01D9022070BD94F86A30462B07D160
:103CA00094F86B30412B03D194F86C30542B17D01F
:103CB00094F886300B4904F18702463B8B34002B85
:103CC000E8D112F8013B11F8010B9442A3EB000379
:103CD000F5D1002B14BF0220002070BD032070BD61
:103CE000002070BDB18D0008F0B5002385B00B60D9
:103CF0000F461446FFF70AFE051EC0F2BB808B4B31
:103D000053F82560002E00F0C2803E60337804F046
:103D1000FE047BB17078FFF757FDC7070AD4002C6B
:103D200000F0A18010F0040400F09D800A242046D9
:103D300005B0F0BDE8B2002333707070FFF73AFDB4
:103D4000C50700F193800CB14407EFD40021304641
:103D5000FFF77CFF02286DD0042800F08F80012837
:103D600098BF00257ED8B6F83F30B3F5007F79D1F3
:103D7000B6F84A3003B9B36D96F84420F361511E8A
:103D80000129B2706ED896F8411088B2708100286F
:103D900068D0481E084265D1B6F8454034812007F6
:103DA00060D1B6F8470000B9706DB6F842E0BEF1D8
:103DB000000F57D003FB02F20EEB14171744B84262
:103DC00050D3C01B8842B0FBF1FC4BD358498C4503
:103DD00048D84FF6F5718C455BD840F6F5718C45A7
:103DE0000EEB05000CF102012F443562F762B16160
:103DF00070626FD8B4B3104401EB410401F00102CA
:103E000002EB5402B062012102F2FF12B3EB522F17
:103E100028D34FF0FF33C6E9043380223271454A7C
:103E200045481388317001339BB21380F380F060F2
:103E3000002418E06C4606F5F97306F2322021469C
:103E40001A7902B19A6841F8042B10339842F7D1DD
:103E500004F1100754F8045B03208DB9BC42F9D17A
:103E600004280BD00D24204605B0F0BD03242046C5
:103E700005B0F0BD0B24204605B0F0BD0124F2E7EB
:103E800029463046FFF7E2FE0128E7D86BE70C240D
:103E9000E9E70EEB05017162B6F85E1035620CF1D0
:103EA00002022F442143F762B261DBD1920002F299
:103EB000FF12316EB162B3EB522FD3D3B6F8642048
:103EC0004FF0FF338021012AC6E90433317108D055
:103ED0000321A4E7002CC5D00244B2624A000221AB
:103EE00092E7336B691C994204D03046FFF796FE87
:103EF0000028EDD1B6F832224AF6552300219A4225
:103F00003171E5D1726B0D4B9A42E1D103F1FF5350
:103F1000D6F8182203F5005320339A42D8D1D6F8A8
:103F20001C22D6F82032C6E90432D1E7602C0120E9
:103F3000F5FFFF0F642C0120682C012052526141D3
:103F40002DE9F8430378022B04460D46164606D0A9
:103F5000032B6AD0012B27D00220BDE8F883476AE3
:103F6000036B07EB11279F4200F09080C378002B72
:103F700040F0B88004F13408607801233A464146A5
:103F8000FFF72AFC00284AD127636D0005F4FF756E
:103F900008EB050108F80560C6F3072201234A7003
:103FA000E3700020BDE8F883426A036B01EB510720
:103FB00002EB5728984563D0C378002B40F08C80E3
:103FC00004F134096078012342464946FFF704FCB6
:103FD00028BBC4F8308015F0010507F10108C7F3CC
:103FE00008075ED019F8073003F00F0343EA061301
:103FF00009F807300123676AE370236B07EB582742
:104000009F427AD02046FFF751FD0028A5D1607865
:1040100001233A464946FFF7DFFB002839D04FF02D
:10402000FF3323630120BDE8F883426A036B02EB90
:10403000D118984527D0C378002B59D104F1340703
:104040006078012342463946FFF7C6FB0028E6D1D7
:10405000C4F83080AD0005F4FE7526F070427B593F
:1040600003F0704379191A43130C7A55100A8B70B8
:10407000120E01234870CA70E3700020BDE8F88377
:1040800000F13409A7E700F13407E3E700F1340851
:104090007BE7C8F308082763C1447DB1C6F3071264
:1040A00013E009F807600123676AE370236B07EBED
:1040B00058279F42A6D1C8F30808C14499F8003098
:1040C000C6F3032223F00F063243012389F80020B0
:1040D000E3700020BDE8F883FFF7E8FC00283FF418
:1040E0006FAF3AE7FFF7E2FC00283FF443AF34E755
:1040F000FFF7DCFC0028A1D02FE7C8F30808C14473
:10410000CCE700BF01294CD9836999422DE9F041E0
:104110000C46054602D30120BDE8F0810378022B4E
:104120005AD0032B3FD0012BF5D1426A01EB510746
:10413000016B02EB57268E420ED0C378002B78D14C
:1041400068780123324605F13401FFF745FB00286A
:104150005FD16A6A2E633146C7F3080301372B44E7
:1041600002EB5728414593F834600DD0EB78002BD3
:1041700064D168780123424605F13401FFF72CFB36
:10418000002846D1C5F83080C7F308073D44E3074F
:1041900095F8340046EA00204CBF0009C0F30B003C
:1041A000BAE701207047466A036B06EBD1169E42C0
:1041B00029D0C3788BBB05F13407687801233246D8
:1041C0003946FFF709FB20BB2E63A40004F4FE74FC
:1041D000385920F070409FE7466A036B06EB1126C2
:1041E0009E4213D0C378FBB905F1340768780123E8
:1041F00032463946FFF7F0FA58B92E63640004F4EA
:10420000FF74385B88E700F13407DEE700F134071C
:10421000F4E74FF0FF3028637EE7FFF747FC002804
:10422000C9D04FF0FF3077E7FFF740FC0028DBD024
:10423000F7E7FFF73BFC002882D0F2E72846FFF7BC
:1042400035FC002895D0ECE7012970B50C4635D92E
:1042500083699942054631D21146EAB1012A2DD02F
:1042600093422BD94FF0FF32FFF76AFEA0B170BD29
:10427000AE69B34222D2FFF763FE0028F7D1D5E939
:104280000532911E8B4205D22979013341F001019B
:104290006B612971944213D221462846FFF732FF01
:1042A00084462346214664460022284644B1012C18
:1042B00004D01CF1010605D0012BD9D8022070BD15
:1042C000002070BD012070BDF8B505460F460029DD
:1042D0004FD10669002E45D083699E4228BF012632
:1042E0006B69002B42D0AB69344606E0012864D0EC
:1042F00001306AD0A64239D0AB6901349C422846CD
:1043000002D3012E32D902242146FFF7FBFE0028FA
:10431000ECD1012C51D9AB69A3424ED94FF0FF32F9
:1043200021462846FFF70CFE002844D15FB1012F3B
:1043300043D0AB699F4240D2224639462846FFF718
:10434000FFFD002837D1D5E90523023B9A422B799E
:104350002C6198BF02F1FF3243F0010398BF6A61FC
:104360002B7104E06B690126002BBCD10024204690
:10437000F8BDFFF7C7FE012804461ED9421C24D011
:10438000AB699842F3D36A69002AEFD07C1CA34240
:1043900098BF022421462846FFF7B4FE01280CD01E
:1043A000431C12D060B12E69012E0BD9AB699E421D
:1043B00028BF3E4698E7012807D001242046F8BDD3
:1043C000002CA8D1AB693E468EE74FF0FF34204663
:1043D000F8BD00BF83692DE9F04B0569002B48D07B
:1043E0002035B5F5001F44D2C5F308080668044619
:1043F000B8F1000F06D0343646442561E66100204E
:10440000BDE8F08B0F46416901338361A1B3738925
:10441000013B13EA5529EED13046FFF773FE012820
:10442000834631D9B0F1FF3F30D0B369834211D810
:1044300037B361692068FFF747FF834640B301281F
:1044400022D0B0F1FF3F21D001463046FFF750FBAC
:10445000E0B9B369C4F814B0023BABF10201994270
:1044600004D2B6F80A90F36A01FB0939C4F818902F
:10447000C1E70420BDE8F08B3389B3EB551FBAD8F0
:104480000023A3610420BBE70220B9E70120B7E7BE
:104490000720B5E72DE9F84304464FF0FF09A76967
:1044A00005684E4604207FB32B6BBB4212D0EB78DD
:1044B0007BBB687801233A4605F13401FFF78CF99C
:1044C00038B14FF0FF332B6301200023A361BDE817
:1044D000F8832F63E1690A78002A55D0CB7AE52A60
:1044E00003F03F03A37105D02E2A03D023F0200050
:1044F000082814D1FF2600212046FFF76BFF002873
:10450000E3D1A769002FCFD10028DED10020BDE87C
:10451000F8832846FFF7CAFA0028CAD0D5E70F2B40
:104520003FD150062DD5236991F80D90E36202F03A
:10453000BF064B7B4B45DDD14B8B002BDAD10A7884
:10454000214BEF6822F04002013A02EB420002EBFD
:104550008002012003F10C0E84464FF6FF7809E03B
:10456000FE2AC7D827F812008446013273450DD0C1
:1045700013F8010F085ABCF1000FF1D14045F5D0F6
:10458000B8E7B242B6D1D4E704209EE70B785B06C9
:1045900004D5FE2AAED8002327F81230013EF6B229
:1045A000A9E76EB901F10B02F30143EA560611F8CF
:1045B000013B53FA86F69142F6B2F5D14E45A5D0AD
:1045C0004FF0FF33E362A1E7CC8D0008B1F5001F87
:1045D00042D2CA06F8B50D4620D181680768056148
:1045E0000646E9B17B89B5EB432F4FEA432435D327
:1045F000384607E0012811D9BB6983420ED9AC4285
:104600002DD83068FFF77EFD431C0146A5EB04055D
:10461000F0D10120F8BD0023C6E905130220F8BD42
:104620003B78022B13D83B89B3EB551FF6D9BA6AF6
:10463000B2617161002AF1D007F13403C5F30801BA
:1046400002EB55220B44C6E906230020F8BDBB6AE5
:10465000002BE8D01946C5E702207047BB69023B32
:10466000881E9842D7D27B89FA6A00FB0322B26186
:10467000DFE700BFC16A2DE9F8434B1C05680669F6
:10468000044631D105F134080127D4F818902B6B7A
:10469000994510D0EB78EBB9687801234A4641463A
:1046A000FFF79AF828B14FF0FF332B630120BDE8E4
:1046B000F883C5F83090E369E5221A70EF7023693A
:1046C000B3424FF00001204614D2FFF783FE0028CA
:1046D000DBD004E02846FFF7E9F90028DCD0042805
:1046E00008BF0220BDE8F883FFF770FF0028C9D09B
:1046F000BDE8F8830020BDE8F88300BF2DE9F04B4A
:10470000002184B007680546FFF760FFC0B94FF08D
:10471000FF334FF0FF08EB62C146AC693B6B9C4234
:1047200012D0FB78002B4CD178780123224607F178
:104730003401FFF751F830B14FF0FF333B630120F4
:1047400004B0BDE8F08B3C63EC692678002E00F0E5
:10475000A780E27AE52E02F03F03AB7103D0100789
:104760000FD50F2B35D04FF0FF33EB624FF0FF0921
:1047700000212846FFF72EFE0028CED004B0BDE869
:10478000F08B0F2B25D0B9F1000F75D095F82B00C9
:1047900010F00100E7D1264695F8202016F80B3BD3
:1047A00001349B1A05F12102002BDCD114F8013BE6
:1047B00012F8011BB442A3EB0103F5D1002BD2D1B7
:1047C000BEE73846FFF772F90028ADD004B0BDE867
:1047D000F08B95F82B305906CAD4720647D52B6951
:1047E00094F80D80EB6206F0BF06637B434540D131
:1047F000638B002B3DD194F80090FA68DFF8CCB0C1
:10480000029609F03F0909F1FF3909EB490309EB69
:10481000830901232646019503920BF10C011846EA
:1048200000971C46154614E0B9F1FE0F204619D832
:1048300001F03AFE844635F81900E14601F034FEF5
:1048400081450FD120492046B9468B452AD01BF817
:10485000014F345B09F101070028E5D14FF6FF73E2
:104860009C42F2D0DDE900754FF0FF0980E7B145C9
:10487000BBD04FF0FF097BE704F10B00224612F892
:10488000011B4FEAC91343EA590951FA89F98242D7
:104890005FFA89F9F3D1C8457FF478AF00204FE77C
:1048A00004204DE73446009F23785B06DDE901567E
:1048B00005D520B1039B33F81930002BD9D106F16F
:1048C000FF395FFA89F953E7D88D0008CC8D0008CD
:1048D0002DE9F04B90F82B308CB013F0A009029327
:1048E00040F0388103680193DB681A880746002A84
:1048F00000F0C5811A4632F8021F09F101090029AA
:10490000F9D107F1200595E8070009AC84E8070014
:10491000029AD40740F1838040226FF01F06CDF841
:104920000C90B24CDDF8049087F82B20F61B4FF06A
:10493000010809AA07CAAC46ACE803002CF8022B10
:10494000B8F1050F4FEA12428CF8002040F2838044
:104950001A88002A7FD09C464346102102F00100AD
:1049600000EB4303D80348BF634001394FEA5202CA
:10497000F4D13CF8022F002AEFD10DF1230E0720CD
:1049800001E010465B4603F00F0C0CF130013929B1
:1049900088BF0CF137010F2B0EF8011900F1FF321F
:1049A0004FEA131BEDD80CAB13447E2103F8141C03
:1049B0001346B2B10238002310E080290BD901F16F
:1049C000200C9F295FFA8CFC02D9BCF11C0F02D885
:1049D000984206D0013301339A4202D9E95C20297A
:1049E000EBD120333B440CA91144072A94BF11F8A2
:1049F000141C202103F8011B06EB030198BF0132B0
:104A00000729F0D93846FFF779FE834628BB08F11D
:104A10000108B8F1640F18D0D9F80C3089E7029B6F
:104A2000019C9B0724D5724B09F10C0800213846E4
:104A3000A3FB0838FFF7CAFD4FEA980808F1010800
:104A40008346F0B1042840F021814FF0070B58460F
:104A50000CB0BDE8F08B43468FE70428DDF80C90DE
:104A6000F5D1029B87F82B30029B3C689B07DAD478
:104A700000213846FFF7AAFD4FF0010883460028C1
:104A8000E0D1064604F134090295BD69236B9D42CD
:104A900013D0E378002B57D1607801232A4649468A
:104AA000FEF79AFE40B14FF0010B4FF0FF3358462E
:104AB00023630CB0BDE8F08B2563FB691B78E52B05
:104AC00008D03BB1002601213846FFF783FC0028BF
:104AD000DBD0B7E70136B045F5D1B8F10103029D4F
:104AE00002933AD1019BBC691B6B9C4210D0019B85
:104AF000DB78002B40F0CC800199012348782246D6
:104B00003431FEF769FE002840F0B280019B1C633F
:104B10000021F869202203F0F5FEFB6907F12B0163
:104B2000013B15F8012B03F8012FA942F9D197F8A1
:104B30002B30F96903F018030B73019B01225846CF
:104B4000DA700CB0BDE8F08B2046FEF7AFFF00280E
:104B5000A2D077E74FF0060B79E73969029B384618
:104B6000A1EB4311FFF732FD0390002840F098803D
:104B700007F12B012A46C30143EA500312F8010B47
:104B800050FA83F38A42D8B2F5D1CDE9045BDFF85D
:104B90006480019C0390BD69236B9D420CD0E37837
:104BA000002B6ED1607801232A4604F13401FEF710
:104BB00013FE00285CD125639DF80890F869D4F8AD
:104BC0000CC009F1FF310F25002201EB4103C57232
:104BD000039D457301EB8301027313468276C2760F
:104BE00001254FF6FF7EFF261FE000BF21100100C8
:104BF0004FECC44ECC8D00083CF8113043551D0AD3
:104C00008BF8015001315BB901320D2A1ED018F822
:104C1000025000EB050B46554FF6FF738BF8016011
:104C200001320D2A0BD018F80250734500EB050B2A
:104C3000E2D14655013205440D2A6E70F3D14FF68C
:104C4000FF72934202D03CF811300BB949F0400991
:104C5000012380F800900021E3703846FFF7BAFB8B
:104C6000A0B9029B013B029395D1DDE9045B39E7D2
:104C7000019A4FF0FF3313634FF0010BE7E69146C3
:104C80003FE62046FEF712FF00288BD08346DEE683
:104C90000198FEF70BFF00283FF42EAF8346D6E6BF
:104CA000DDF80CB0D3E600BF2DE9F04B84B003680B
:104CB000009306460D4611F8013B2F2BFAD05C2BD2
:104CC000F8D00021B1602B781F2B40F25881009A58
:104CD000D2F80C900024A9F10207802B98B212D9C7
:104CE0009F2B03D92033DBB21C2B0CD86B783F2BC6
:104CF00005D97E2B25D983F080027C2A21D9062074
:104D000004B0BDE8F08B0135F8B92B461A782F2A8C
:104D10001D4603F10103F9D05C2AF7D0202834BFE7
:104D2000042700274CB109EB440232F8023D202B46
:104D300001D02E2B28D1013CF7D10023A9F8003057
:104D4000DDE703EB0020023580B24FF4697101F01A
:104D500085FB0028D3D01F28D7D92F28D5D05C2891
:104D6000D3D07F2806D9FF2CC9D027F8020F0134F1
:104D70002B78B2E79B4A222303E012F8013F002B75
:104D8000F1D08342F9D1BAE7002229F81420B9F80A
:104D90000030202B08BF09F1020340F0B380194610
:104DA00033F8020B2028904602F10102F7D008F1F7
:104DB000020847F00307FFB209EB440333F8022D62
:104DC0002E2A01D0013CF9D14FF0203373623362B7
:104DD000C6F82730088818B329464FF0000B4D4617
:104DE0000822A1460B465C4620283BD02E2874D0D2
:104DF00094427ED2C14572D07F2800F296802B214A
:104E00008142DFF8E4C106D01CF8011F002900F040
:104E1000D6808142F8D1019799E047F00207FFB2AE
:104E200086F82B703046FFF769FC96F82B30002887
:104E30004BD15A073FF564AFB379DB0640F1BB8035
:104E4000009932690B46C2F30802097834331344DF
:104E500003295A8B04BF9B8A42EA0342B2602B7833
:104E6000326835E747F00307FFB2414635F81100D5
:104E700001F101080028B7D11D4696F82030E52B36
:104E800004BF052386F82030082A42D00BF00C031B
:104E90000C2BC2D00BF00303032BBED0B907BFD439
:104EA0001BF0010F1CBF47F01007FFB21BF0040FEF
:104EB0001CBF47F00807FFB286F82B703046FFF79B
:104EC0001DFC96F82B300028B3D004287FF418AFCF
:104ED00013F0040F08BF052012E7C145C2D10B2A09
:104EE0005CD04FEA8B0B5FFA8BFB49460B22082400
:104EF000BCE70B2A52D0C145F3D047F00307FFB2FD
:104F0000BAD3EEE72E2B49464FF001087FF454AF99
:104F10004FE74FEA8B0B0BF00C030C2B5FFA8BFB6C
:104F20003FF47BAFB807C1D57AE747F00201CDE97E
:104F30000223CBB2019301F0B7FA4FF4697101F08B
:104F400063FAFF28DDE902230DD8002848D1019932
:104F500041F00307FFB25F2006EB040C41468CF8DA
:104F60002000013482E7511EA14211D931194FEAC4
:104F7000102C019F81F820C00134C0B2ECE78023DF
:104F8000304686F82B3004B0BDE8F04BFFF71EBB6F
:104F900047F00307FFB24146144667E71D4696F8FF
:104FA000203047F00307E52BFFB27FF46FAF0523F6
:104FB00086F820306AE7052004B0BDE8F08BA0F148
:104FC000410189B2192901D84BF0020BA0F161010E
:104FD00089B219299CBF20384BF0010BC0B2BBE746
:104FE000019F0CE7B88D0008C48D000810B584B08F
:104FF0001446019003A800910391FEF787FC002856
:1050000016DB0D4A52F820300BB100211970019BBC
:105010000BB10021197042F8203014B9204604B0B9
:1050200010BD002201A96846FEF75EFE04B010BD67
:105030000B2004B010BD00BF602C01202DE9F04B07
:1050400090B0019100287FD002F03F071646044639
:105050003A4603A901A8FEF747FE054628B10023FA
:105060002360284610B0BDE8F08B039B01990493A0
:1050700004A8FFF719FE80B99DF93B30002B68DBCF
:1050800016F01C0F10D09DF8163013F0110F62D1DE
:10509000700740F1C6800825E1E716F01C0F01D02B
:1050A00004285CD00546DAE79DF81630DA0654D4B9
:1050B000B20701D5DB074ED4DDF80C903E0748BFA0
:1050C00047F04007D9F8303023620B9B636299F8B0
:1050D00000205E8B032A04BF9A8A46EA0246A66035
:1050E000D3F81C80B9F80630C4F80C80002104F114
:1050F000280BC4F80090A38027746174E16161619A
:105100004FF40072584603F0FDFBB806A9D5B8F17C
:10511000000FA6D0B9F80A30C4F81480B8EB432FBA
:105120004FEA432706D881E0411CA8EB070876D058
:1051300047457BD231462068FEF7E4FF012806464A
:10514000F2D80225A6618AE70925284610B0BDE8F5
:10515000F08B062583E7072581E704257FE704A870
:10516000FFF7B6FB47F0080700289BD1039BDDF84B
:105170002C801B78B8F81A60032B04BFB8F81430E1
:1051800046EA0346FEF7C0FB030A88F80E0088F8DB
:105190000F30030C000E88F8103088F811000B9BBC
:1051A000DDF80C902022DA720B9B00229A76DA76D8
:1051B00099F80010032901D11A755A750B9B00222A
:1051C0001A775A779A77DA77012389F80330002E15
:1051D0003FF474AF0498D9F830803146FFF734F8C3
:1051E00000287FF45FAFDDF80C90D9F83030984597
:1051F00040D099F80330002B40D199F801000123E9
:10520000424609F13401FEF7E7FA78B34FF0FF3276
:10521000039BC9F83020164401251E611FE70125B4
:1052200090E73107A2D4DDF80C904BE7C8F30803F0
:10523000A661002B3FF415AF03998B69023E023B38
:105240009E4204D24A89CB6A06FB02320AB9022581
:1052500005E702EB5822E261487801235946FEF740
:10526000BBFA00283FF4FDAE0125F8E6C9F830800E
:10527000DDF80C90013EC9F810601FE74846FEF7C4
:1052800015FC0028B9D0039B013E1E610546E6E6E9
:105290002DE9F04B1F4686B0002389463B6005A9E7
:1052A00004469046FEF74AFB054600285ED1657C21
:1052B000002D5BD1237C13F00103019300F08F805C
:1052C0006169E3685B1A984528BF9846B8F1000FFA
:1052D0004CD004F128030295BB461D46C1F30803D8
:1052E00043BB059A5389013B13EA512342D0A0697D
:1052F000916902380239884249D25189D76A01FB43
:105300000077002F43D0B8F5007F1F4445D2E369F2
:10531000BB420BD094F91010002962DB50780123B6
:105320003A462946FEF758FA00284AD16369E761F0
:10533000C3F30803C3F50076464528BF46462B4411
:1053400009F1FF32981913F8011B02F8011F83427B
:10535000F9D1DBF80030616933443144B8EB060819
:10536000CBF80030B1446161B8D1029D284606B047
:10537000BDE8F08B61BBA068012808D9421C20D091
:10538000059AA0619169023802398842B5D3022595
:105390002846657406B0BDE8F08B03EB58208842C0
:1053A0004FEA582688BFCE1A5078F3B23A4649469B
:1053B000FEF712FA28B994F91030002B1FDB7602A1
:1053C000C7E7019D01232846637406B0BDE8F08B52
:1053D000A16920680393FEF795FE039BCCE70725A0
:1053E000C4E7507829461A460123FEF73FFA002801
:1053F000E7D1237C059A03F07F0323748EE7E369EA
:10540000DF1BB742DBD209EB47277B1E04F12802E2
:1054100004F50A7012F8011B03F8011F8242F9D14A
:10542000CDE700BF2DE9F04B984684B000230C4631
:10543000C8F8003003A905461746FEF77FFA06466E
:1054400000285DD16E7C002E5AD12B7C9A0740F14A
:10545000B3806A69FA4228BFD743002F00F08480E6
:1054600005F1280300961E46C2F30803002B55D110
:105470000399B1F80AB00BF1FF3B1BEA522B0FD195
:10548000002A40F09180A868002873D0012835D008
:10549000431C00F08380AB68A861002B68D003999F
:1054A00095F91030002B6CDBAA698B69023A023B3C
:1054B0009A4223D24889CB6A00FB0232F2B1B7F597
:1054C000007F5A4420D30BEB572383424FEA5729DE
:1054D00088BFA0EB0B095FFA89F348780192214657
:1054E000FEF7C4F9002859D1EB69019A9A1A4A4586
:1054F0006FD304EB49214FEA492922E002266E745A
:10550000304604B0BDE8F08BEB6993426B6902D082
:10551000E868834252D3EA61C3F30803C3F5007914
:10552000B94528BFB946013B334404EB090114F8DF
:10553000012B03F8012F8C42F9D12B7C63F07F0300
:105540002B74D8F800306A694B44C8F80030EB6817
:105550004A44934238BF1346B7EB09070C466A61C9
:10556000EB6081D1009E2B7C43F040032B74C7E796
:10557000A86094E728685946FEF7A6FE002885D162
:10558000F0E74878EA6901233146FEF76FF928B958
:105590002B7C039903F07F032B7485E701263046AB
:1055A0006E7404B0BDE8F08BA9692868FEF78CFE24
:1055B00000287FF46BAFD5E70726A1E74878019272
:1055C00001233146FEF708F90028E7D16B69019AFB
:1055D000A1E704EB422303F5007005F1270213F85D
:1055E000011B02F8011F8342F9D12B7C03F07F03DA
:1055F0002B747EE74368002B1EDB70B55E1C0344F2
:105600003B2E8568197382B0044604DC0135C4E979
:10561000016502B070BD0146324601AB51F80C0B7A
:10562000FFF700FF019B9E1B18BF4FF0FF360135AF
:10563000C4E9016502B070BD704700BF70B3F8B532
:10564000036804462BB11A781AB18188DA8891422E
:1056500001D00920F8BD5878FEF7B6F8C207F8D493
:10566000237C13F04000F5D01B06266847D4FEF7D4
:105670004BF9276A336B9F42054612D0F378002B13
:105680004AD1707801233A4606F13401FEF7A4F8B6
:1056900030B14FF0FF3333630120F8BD092070476C
:1056A0003763636ADA7A42F02002DA72A26821680C
:1056B0009A76C2F30720D8760978032903D1120C11
:1056C0001A75120A5A75E2681A77110A5977110C7D
:1056D000120EDA772A0ADA752A0C9D751A762D0EC3
:1056E000002299775D769A74DA740123F37030465C
:1056F000FEF734FA237C23F040032374F8BDE269FB
:105700007078012304F12801FEF7B0F850B9237C2A
:1057100003F07F032374AAE73046FEF7C7F9002899
:10572000AFD0F8BD0120F8BD10B582B00446FFF738
:1057300085FF08B102B010BD01A92046FEF7FEF8B2
:105740000028F7D1206002B010BD00BF2DE9F04164
:1057500084B00E4603A90446FEF7F0F80746002879
:1057600054D1677C002F51D1E368B34204D2227C2C
:1057700012F0020F08BF1E46002263696261002E0C
:1057800044D0039AB2F80A804FEA4828002B41D04F
:10579000013B721EB3FBF8F1B2FBF8F28A4239D337
:1057A000C8F10002A56913406361F61A002D37D0D5
:1057B000464512D86AE02068FEF786FD05460028B7
:1057C00078D06B1C20D0012D57D9039B9B69AB422D
:1057D00053D9B0456369A56158D2227C43449207EE
:1057E00029466361A6EB0806E5D42068FEF78AFC2B
:1057F0000546E6E7039B04F128015878019101234F
:10580000FEF734F800283BD001276774384604B00F
:10581000BDE8F081A56825B30023A561002DC7D19F
:10582000E2689A423EBF227CE36042F04002C3F34A
:10583000080338BF2274002BE8D0E269AA42E5D001
:1058400094F91030002BD5DB04F12801039A0123D1
:1058500050782A46FDF7C0FF07460028D4D1E561FD
:10586000D4E729462068FEF72FFD0128054604D01D
:10587000411CC9D06369A060CFE702276774C5E700
:10588000237C019903F07F032374DFE73344C6F3DD
:105890000802636182B103998A69023D023A954226
:1058A000EBD24889CA6A05FB0025002DE5D005EB3F
:1058B0005625B5E76369B3E71546B1E710B584B07F
:1058C0000191002832D00446002203A901A8FEF766
:1058D0000BFA18B10023236004B010BD039B01999B
:1058E00023602046FFF7E0F9E0B994F92B30002B54
:1058F0001FDBA379DB0617D5039BE16918784A8B78
:10590000032804BF898A42EA0142A260DB88A3809F
:1059100000212046FEF75AFE042805D00028D9D1E0
:1059200004B010BD0428D5D10520D3E7092004B068
:1059300010BD039BEAE700BF98B1036810B50446A9
:105940002BB11A781AB18188DA88914201D00920E6
:1059500010BD5878FDF738FF10F00100F7D1206036
:1059600010BD0920704700BF20B3036870B504461E
:1059700033B11A7822B1DA880D468188914201D07C
:10598000092070BD5878FDF71FFFC307F8D49DB1FB
:105990002046FEF77FFD10F0FB06F2D12946204697
:1059A000FDF7E4FF31462046FEF714FD042808BF4A
:1059B000002070BD0920704729462046BDE8704090
:1059C000FEF704BE30B58FB00D460190002202A94B
:1059D00001A8FEF789F9044610B120460FB030BD8A
:1059E000019902A8FFF760F904460028F5D19DF956
:1059F0003330002B06DB002DEFD0294602A8FDF73F
:105A0000B5FFEAE70624E8E72DE9F04B84B08946C4
:105A10000190144603A9002201A8FEF765F9074684
:105A200040B9039D2560D5E90536B21E934205D8DD
:105A3000C9F80030384604B0BDE8F08B2B78012B54
:105A400028D06A6A0090044680461746002C39D157
:105A50002B6B9F4207F1010B33D0EB78002B4DD11C
:105A6000687801233A4605F13401FDF7B5FE0028B8
:105A700040D04FF0FF332B63039D0127C9F800800E
:105A80002B79C5F8148043F0010338462B7104B01C
:105A9000BDE8F08B0224804608E0012836D008B922
:105AA00008F10108039B9A69A24232D9214628468F
:105AB000FEF728FB431C04F10104EED1039D0127EE
:105AC000DCE75F462B78022B05EB04030CD05B6B05
:105AD00033F0704308BF08F101080434013EC4F3F9
:105AE0000804B3D1009FC9E79B8E0BB908F10108E8
:105AF0000234F3E72F63039D5F46E3E72846FDF793
:105B0000D5FF0028ACD0039D0746B7E7039D0227C9
